:020000040000FA
:100000000200EEE4F5087B0A7D5AAF081201F8EF12
:100010007002FF22E4F508D3E508942DE494005023
:10002000090508308DFDC28D80ED7B057D2DAF0863
:100030001201F8EF7002FF22E4F511AF11E4FCFDAC
:10004000FEAB0CAA0BA90AA809D312017D5003022A
:1000500000EBE4F5087B027D16AF081201F8EF70A3
:1000600007E50860037F0022E50C14C39511FF7EAD
:10007000007401A807088005C333CE33CED8F9FF3A
:10008000E5104FF510E50F4EF50FE50EF50EE50DF9
:10009000F50DE4F508D3E508940BE4940050090548
:1000A00008308DFDC28D80ED7B027D0BAF08120103
:1000B000F8EF7007E50860037F0022E50C14C39594
:1000C00011FF7E007401A807088005C333CE33CE2C
:1000D000D8F9F4FFEEF4FEE5105FF510E50F5EF5DC
:1000E0000FE4F50EF50D051102003B7F012212020F
:1000F00077787FE4F6D8FD7581120201380201C8D5
:10010000E493A3F8E493A34003F68001F208DFF43C
:100110008029E493A3F85407240CC8C333C4540FB4
:100120004420C8834004F456800146F6DFE4800B87
:100130000102040810204080900245E47E01936093
:10014000BCA3FF543F30E509541FFEE493A36001B4
:100150000ECF54C025E060A840B8E493A3FAE4931E
:10016000A3F8E493A3C8C582C8CAC583CAF0A3C8CC
:10017000C582C8CAC583CADFE9DEE780BEEB9FF54A
:10018000F0EA9E42F0E99D42F0E89C45F022D083DF
:10019000D082E4937012740193700DA3A393F8744A
:1001A0000193F5828883E4737402936C7012740374
:1001B000936D700C7404936E70067405936F60DD1C
:1001C000A3A3A3A3A3A380CA120219120003EF6082
:1001D000FAAC0DAD0EAE0FAF1012018E01EC00FFA8
:1001E000A85701F000FFE01F000001F4C2A080DB6F
:1001F000D2A080D7D2A080D3C3ED9BFEEFC39E4098
:1002000015ED2BFDE433FCD3EF9DEC6480F8748096
:100210009850037F01227F002285A71212026212EA
:10022000025812027612027212023212026B851208
:10023000A722AF885388AF758CEBEF5440FEEF5484
:10024000104E428822040900000020040D00000026
:10025000000108000111000053DF7F75CE08E4F5AE
:10026000D322E4F5A753D9BFF5D922758902438873
:08027000102275E34022222256
:00000001FF
