:020000040000FA
:100000000200031201A5787FE4F6D8FD7581200275
:10001000004D020141E493A3F8E493A34003F6806A
:1000200001F208DFF48029E493A3F85407240CC8F4
:10003000C333C4540F4420C8834004F4568001469F
:10004000F6DFE4800B01020408102040809001528A
:10005000E47E019360BCA3FF543F30E509541FFECA
:10006000E493A360010ECF54C025E060A840B8E43B
:1000700093A3FAE493A3F8E493A3C8C582C8CAC5BE
:1000800083CAF0A3C8C582C8CAC583CADFE9DEE750
:1000900080BEE4F50AE50AC395095036750F08D30A
:1000A000E50F9400748094804024740B250AF8E6D0
:1000B000FFAE0FA806088002C313D8FC13920020DD
:1000C00000051201958003120182150F80D1050AE7
:1000D00080C37F010200F085A71012018C1201A1DC
:1000E00012019D12011C12010912016E8510A72236
:1000F000D2A38F08E5086010308D04C28D1508303A
:10010000CFF2C2CFB2A380EC22E5C8540453C8FB9F
:1001100075CBFF75CADF43C80442C822AF88538835
:10012000AF758C8BEF5440FEEF54104E428822C2C4
:10013000A38F08E5086009308DF9C28D150880F39A
:10014000221200D7E4FDFF12016112017812009221
:1001500080F2010815010904010A00010F00C10025
:10016000008F0BEFF4F50C8D0DEDF4F50E22758E6E
:1001700010758902438810227F101200F07F080258
:10018000012F7F011200F07F0302012FE4F5A75336
:10019000D9BFF5D9227F011200F002012F75E3408B
:0601A0002275A6082222D0
:00000001FF
