:020000040000FA
:100000000200031201A2787FE4F6D8FD7581200278
:10001000004D02013DE493A3F8E493A34003F6806E
:1000200001F208DFF48029E493A3F85407240CC8F4
:10003000C333C4540F4420C8834004F4568001469F
:10004000F6DFE4800B010204081020408090014F8D
:10005000E47E019360BCA3FF543F30E509541FFECA
:10006000E493A360010ECF54C025E060A840B8E43B
:1000700093A3FAE493A3F8E493A3C8C582C8CAC5BE
:1000800083CAF0A3C8C582C8CAC583CADFE9DEE750
:1000900080BEE4F50AE50AC395095036750F08D30A
:1000A000E50F9400748094804024740B250AF8E6D0
:1000B000FFAE0FA806088002C313D8FC13920020DD
:1000C0000005120192800312017F150F80D1050AED
:1000D00080C32285A71012018912019E12019A1273
:1000E000011812010512016B8510A722D2A38F08F7
:1000F000E5086010308D04C28D150830CFF2C2CFF4
:10010000B2A380EC22E5C8540453C8FB75CBFF753D
:10011000CADF43C80442C822AF885388AF758C8BAE
:10012000EF5440FEEF54104E428822C2A38F08E5E0
:10013000086009308DF9C28D150880F3221200D3B2
:100140007DB5E4FF12015E12017512009280F1018B
:100150000815010904010A00010F00C100008F0BFE
:10016000EFF4F50C8D0DEDF4F50E22758E107589FA
:1001700002438810227F101200EC7F0802012B7FBF
:10018000011200EC7F0302012BE4F5A753D9BFF560
:10019000D9227F011200EC02012B75E3402275A6E3
:0301A00008222210
:00000001FF
